{
  "_format": "hh-sol-artifact-1",
  "contractName": "QuantumChessArena",
  "sourceName": "contracts/QuantumChessArena.sol",
  "abi": [
    {
      "inputs": [],
      "stateMutability": "nonpayable",
      "type": "constructor"
    },
    {
      "inputs": [],
      "name": "ERC721EnumerableForbiddenBatchMint",
      "type": "error"
    },
    {
      "inputs": [
        {
          "internalType": "address",
          "name": "sender",
          "type": "address"
        },
        {
          "internalType": "uint256",
          "name": "tokenId",
          "type": "uint256"
        },
        {
          "internalType": "address",
          "name": "owner",
          "type": "address"
        }
      ],
      "name": "ERC721IncorrectOwner",
      "type": "error"
    },
    {
      "inputs": [
        {
          "internalType": "address",
          "name": "operator",
          "type": "address"
        },
        {
          "internalType": "uint256",
          "name": "tokenId",
          "type": "uint256"
        }
      ],
      "name": "ERC721InsufficientApproval",
      "type": "error"
    },
    {
      "inputs": [
        {
          "internalType": "address",
          "name": "approver",
          "type": "address"
        }
      ],
      "name": "ERC721InvalidApprover",
      "type": "error"
    },
    {
      "inputs": [
        {
          "internalType": "address",
          "name": "operator",
          "type": "address"
        }
      ],
      "name": "ERC721InvalidOperator",
      "type": "error"
    },
    {
      "inputs": [
        {
          "internalType": "address",
          "name": "owner",
          "type": "address"
        }
      ],
      "name": "ERC721InvalidOwner",
      "type": "error"
    },
    {
      "inputs": [
        {
          "internalType": "address",
          "name": "receiver",
          "type": "address"
        }
      ],
      "name": "ERC721InvalidReceiver",
      "type": "error"
    },
    {
      "inputs": [
        {
          "internalType": "address",
          "name": "sender",
          "type": "address"
        }
      ],
      "name": "ERC721InvalidSender",
      "type": "error"
    },
    {
      "inputs": [
        {
          "internalType": "uint256",
          "name": "tokenId",
          "type": "uint256"
        }
      ],
      "name": "ERC721NonexistentToken",
      "type": "error"
    },
    {
      "inputs": [
        {
          "internalType": "address",
          "name": "owner",
          "type": "address"
        },
        {
          "internalType": "uint256",
          "name": "index",
          "type": "uint256"
        }
      ],
      "name": "ERC721OutOfBoundsIndex",
      "type": "error"
    },
    {
      "inputs": [
        {
          "internalType": "address",
          "name": "owner",
          "type": "address"
        }
      ],
      "name": "OwnableInvalidOwner",
      "type": "error"
    },
    {
      "inputs": [
        {
          "internalType": "address",
          "name": "account",
          "type": "address"
        }
      ],
      "name": "OwnableUnauthorizedAccount",
      "type": "error"
    },
    {
      "anonymous": false,
      "inputs": [
        {
          "indexed": true,
          "internalType": "uint256",
          "name": "tokenId",
          "type": "uint256"
        },
        {
          "indexed": true,
          "internalType": "address",
          "name": "player",
          "type": "address"
        },
        {
          "indexed": false,
          "internalType": "string",
          "name": "achievementType",
          "type": "string"
        }
      ],
      "name": "AchievementMinted",
      "type": "event"
    },
    {
      "anonymous": false,
      "inputs": [
        {
          "indexed": true,
          "internalType": "address",
          "name": "owner",
          "type": "address"
        },
        {
          "indexed": true,
          "internalType": "address",
          "name": "approved",
          "type": "address"
        },
        {
          "indexed": true,
          "internalType": "uint256",
          "name": "tokenId",
          "type": "uint256"
        }
      ],
      "name": "Approval",
      "type": "event"
    },
    {
      "anonymous": false,
      "inputs": [
        {
          "indexed": true,
          "internalType": "address",
          "name": "owner",
          "type": "address"
        },
        {
          "indexed": true,
          "internalType": "address",
          "name": "operator",
          "type": "address"
        },
        {
          "indexed": false,
          "internalType": "bool",
          "name": "approved",
          "type": "bool"
        }
      ],
      "name": "ApprovalForAll",
      "type": "event"
    },
    {
      "anonymous": false,
      "inputs": [
        {
          "indexed": false,
          "internalType": "uint256",
          "name": "_fromTokenId",
          "type": "uint256"
        },
        {
          "indexed": false,
          "internalType": "uint256",
          "name": "_toTokenId",
          "type": "uint256"
        }
      ],
      "name": "BatchMetadataUpdate",
      "type": "event"
    },
    {
      "anonymous": false,
      "inputs": [
        {
          "indexed": true,
          "internalType": "uint256",
          "name": "gameId",
          "type": "uint256"
        },
        {
          "indexed": true,
          "internalType": "address",
          "name": "player1",
          "type": "address"
        },
        {
          "indexed": true,
          "internalType": "address",
          "name": "player2",
          "type": "address"
        }
      ],
      "name": "GameCreated",
      "type": "event"
    },
    {
      "anonymous": false,
      "inputs": [
        {
          "indexed": true,
          "internalType": "uint256",
          "name": "gameId",
          "type": "uint256"
        },
        {
          "indexed": true,
          "internalType": "address",
          "name": "winner",
          "type": "address"
        }
      ],
      "name": "GameEnded",
      "type": "event"
    },
    {
      "anonymous": false,
      "inputs": [
        {
          "indexed": false,
          "internalType": "uint256",
          "name": "_tokenId",
          "type": "uint256"
        }
      ],
      "name": "MetadataUpdate",
      "type": "event"
    },
    {
      "anonymous": false,
      "inputs": [
        {
          "indexed": true,
          "internalType": "uint256",
          "name": "gameId",
          "type": "uint256"
        },
        {
          "indexed": true,
          "internalType": "address",
          "name": "player",
          "type": "address"
        },
        {
          "indexed": false,
          "internalType": "string",
          "name": "move",
          "type": "string"
        },
        {
          "indexed": false,
          "internalType": "uint256",
          "name": "timestamp",
          "type": "uint256"
        }
      ],
      "name": "MoveMade",
      "type": "event"
    },
    {
      "anonymous": false,
      "inputs": [
        {
          "indexed": true,
          "internalType": "address",
          "name": "previousOwner",
          "type": "address"
        },
        {
          "indexed": true,
          "internalType": "address",
          "name": "newOwner",
          "type": "address"
        }
      ],
      "name": "OwnershipTransferred",
      "type": "event"
    },
    {
      "anonymous": false,
      "inputs": [
        {
          "indexed": true,
          "internalType": "address",
          "name": "from",
          "type": "address"
        },
        {
          "indexed": true,
          "internalType": "address",
          "name": "to",
          "type": "address"
        },
        {
          "indexed": true,
          "internalType": "uint256",
          "name": "tokenId",
          "type": "uint256"
        }
      ],
      "name": "Transfer",
      "type": "event"
    },
    {
      "inputs": [],
      "name": "achievementCounter",
      "outputs": [
        {
          "internalType": "uint256",
          "name": "",
          "type": "uint256"
        }
      ],
      "stateMutability": "view",
      "type": "function"
    },
    {
      "inputs": [
        {
          "internalType": "address",
          "name": "to",
          "type": "address"
        },
        {
          "internalType": "uint256",
          "name": "tokenId",
          "type": "uint256"
        }
      ],
      "name": "approve",
      "outputs": [],
      "stateMutability": "nonpayable",
      "type": "function"
    },
    {
      "inputs": [
        {
          "internalType": "address",
          "name": "owner",
          "type": "address"
        }
      ],
      "name": "balanceOf",
      "outputs": [
        {
          "internalType": "uint256",
          "name": "",
          "type": "uint256"
        }
      ],
      "stateMutability": "view",
      "type": "function"
    },
    {
      "inputs": [
        {
          "internalType": "address",
          "name": "opponent",
          "type": "address"
        }
      ],
      "name": "createGame",
      "outputs": [
        {
          "internalType": "uint256",
          "name": "gameId",
          "type": "uint256"
        }
      ],
      "stateMutability": "nonpayable",
      "type": "function"
    },
    {
      "inputs": [
        {
          "internalType": "uint256",
          "name": "gameId",
          "type": "uint256"
        },
        {
          "internalType": "address",
          "name": "winner",
          "type": "address"
        }
      ],
      "name": "endGame",
      "outputs": [],
      "stateMutability": "nonpayable",
      "type": "function"
    },
    {
      "inputs": [],
      "name": "gameCounter",
      "outputs": [
        {
          "internalType": "uint256",
          "name": "",
          "type": "uint256"
        }
      ],
      "stateMutability": "view",
      "type": "function"
    },
    {
      "inputs": [
        {
          "internalType": "uint256",
          "name": "",
          "type": "uint256"
        }
      ],
      "name": "games",
      "outputs": [
        {
          "internalType": "address",
          "name": "player1",
          "type": "address"
        },
        {
          "internalType": "address",
          "name": "player2",
          "type": "address"
        },
        {
          "internalType": "uint256",
          "name": "startTime",
          "type": "uint256"
        },
        {
          "internalType": "uint8",
          "name": "status",
          "type": "uint8"
        },
        {
          "internalType": "address",
          "name": "winner",
          "type": "address"
        }
      ],
      "stateMutability": "view",
      "type": "function"
    },
    {
      "inputs": [],
      "name": "getActiveGames",
      "outputs": [
        {
          "internalType": "uint256[]",
          "name": "",
          "type": "uint256[]"
        }
      ],
      "stateMutability": "view",
      "type": "function"
    },
    {
      "inputs": [
        {
          "internalType": "uint256",
          "name": "tokenId",
          "type": "uint256"
        }
      ],
      "name": "getApproved",
      "outputs": [
        {
          "internalType": "address",
          "name": "",
          "type": "address"
        }
      ],
      "stateMutability": "view",
      "type": "function"
    },
    {
      "inputs": [
        {
          "internalType": "uint256",
          "name": "gameId",
          "type": "uint256"
        }
      ],
      "name": "getGameState",
      "outputs": [
        {
          "components": [
            {
              "internalType": "address",
              "name": "player1",
              "type": "address"
            },
            {
              "internalType": "address",
              "name": "player2",
              "type": "address"
            },
            {
              "internalType": "string[]",
              "name": "moves",
              "type": "string[]"
            },
            {
              "internalType": "uint256",
              "name": "startTime",
              "type": "uint256"
            },
            {
              "internalType": "uint8",
              "name": "status",
              "type": "uint8"
            },
            {
              "internalType": "address",
              "name": "winner",
              "type": "address"
            },
            {
              "internalType": "uint8[64]",
              "name": "board",
              "type": "uint8[64]"
            }
          ],
          "internalType": "struct QuantumChessArena.Game",
          "name": "",
          "type": "tuple"
        }
      ],
      "stateMutability": "view",
      "type": "function"
    },
    {
      "inputs": [
        {
          "internalType": "address",
          "name": "owner",
          "type": "address"
        },
        {
          "internalType": "address",
          "name": "operator",
          "type": "address"
        }
      ],
      "name": "isApprovedForAll",
      "outputs": [
        {
          "internalType": "bool",
          "name": "",
          "type": "bool"
        }
      ],
      "stateMutability": "view",
      "type": "function"
    },
    {
      "inputs": [
        {
          "internalType": "uint256",
          "name": "gameId",
          "type": "uint256"
        },
        {
          "internalType": "string",
          "name": "move",
          "type": "string"
        }
      ],
      "name": "makeMove",
      "outputs": [],
      "stateMutability": "nonpayable",
      "type": "function"
    },
    {
      "inputs": [
        {
          "internalType": "address",
          "name": "player",
          "type": "address"
        },
        {
          "internalType": "string",
          "name": "achievementType",
          "type": "string"
        }
      ],
      "name": "mintAchievement",
      "outputs": [],
      "stateMutability": "nonpayable",
      "type": "function"
    },
    {
      "inputs": [],
      "name": "name",
      "outputs": [
        {
          "internalType": "string",
          "name": "",
          "type": "string"
        }
      ],
      "stateMutability": "view",
      "type": "function"
    },
    {
      "inputs": [],
      "name": "owner",
      "outputs": [
        {
          "internalType": "address",
          "name": "",
          "type": "address"
        }
      ],
      "stateMutability": "view",
      "type": "function"
    },
    {
      "inputs": [
        {
          "internalType": "uint256",
          "name": "tokenId",
          "type": "uint256"
        }
      ],
      "name": "ownerOf",
      "outputs": [
        {
          "internalType": "address",
          "name": "",
          "type": "address"
        }
      ],
      "stateMutability": "view",
      "type": "function"
    },
    {
      "inputs": [
        {
          "internalType": "address",
          "name": "",
          "type": "address"
        }
      ],
      "name": "playerStats",
      "outputs": [
        {
          "internalType": "uint256",
          "name": "rating",
          "type": "uint256"
        },
        {
          "internalType": "uint256",
          "name": "gamesPlayed",
          "type": "uint256"
        },
        {
          "internalType": "uint256",
          "name": "gamesWon",
          "type": "uint256"
        }
      ],
      "stateMutability": "view",
      "type": "function"
    },
    {
      "inputs": [],
      "name": "renounceOwnership",
      "outputs": [],
      "stateMutability": "nonpayable",
      "type": "function"
    },
    {
      "inputs": [
        {
          "internalType": "address",
          "name": "from",
          "type": "address"
        },
        {
          "internalType": "address",
          "name": "to",
          "type": "address"
        },
        {
          "internalType": "uint256",
          "name": "tokenId",
          "type": "uint256"
        }
      ],
      "name": "safeTransferFrom",
      "outputs": [],
      "stateMutability": "nonpayable",
      "type": "function"
    },
    {
      "inputs": [
        {
          "internalType": "address",
          "name": "from",
          "type": "address"
        },
        {
          "internalType": "address",
          "name": "to",
          "type": "address"
        },
        {
          "internalType": "uint256",
          "name": "tokenId",
          "type": "uint256"
        },
        {
          "internalType": "bytes",
          "name": "data",
          "type": "bytes"
        }
      ],
      "name": "safeTransferFrom",
      "outputs": [],
      "stateMutability": "nonpayable",
      "type": "function"
    },
    {
      "inputs": [
        {
          "internalType": "address",
          "name": "operator",
          "type": "address"
        },
        {
          "internalType": "bool",
          "name": "approved",
          "type": "bool"
        }
      ],
      "name": "setApprovalForAll",
      "outputs": [],
      "stateMutability": "nonpayable",
      "type": "function"
    },
    {
      "inputs": [
        {
          "internalType": "bytes4",
          "name": "interfaceId",
          "type": "bytes4"
        }
      ],
      "name": "supportsInterface",
      "outputs": [
        {
          "internalType": "bool",
          "name": "",
          "type": "bool"
        }
      ],
      "stateMutability": "view",
      "type": "function"
    },
    {
      "inputs": [],
      "name": "symbol",
      "outputs": [
        {
          "internalType": "string",
          "name": "",
          "type": "string"
        }
      ],
      "stateMutability": "view",
      "type": "function"
    },
    {
      "inputs": [
        {
          "internalType": "uint256",
          "name": "index",
          "type": "uint256"
        }
      ],
      "name": "tokenByIndex",
      "outputs": [
        {
          "internalType": "uint256",
          "name": "",
          "type": "uint256"
        }
      ],
      "stateMutability": "view",
      "type": "function"
    },
    {
      "inputs": [
        {
          "internalType": "address",
          "name": "owner",
          "type": "address"
        },
        {
          "internalType": "uint256",
          "name": "index",
          "type": "uint256"
        }
      ],
      "name": "tokenOfOwnerByIndex",
      "outputs": [
        {
          "internalType": "uint256",
          "name": "",
          "type": "uint256"
        }
      ],
      "stateMutability": "view",
      "type": "function"
    },
    {
      "inputs": [
        {
          "internalType": "uint256",
          "name": "tokenId",
          "type": "uint256"
        }
      ],
      "name": "tokenURI",
      "outputs": [
        {
          "internalType": "string",
          "name": "",
          "type": "string"
        }
      ],
      "stateMutability": "view",
      "type": "function"
    },
    {
      "inputs": [],
      "name": "totalSupply",
      "outputs": [
        {
          "internalType": "uint256",
          "name": "",
          "type": "uint256"
        }
      ],
      "stateMutability": "view",
      "type": "function"
    },
    {
      "inputs": [
        {
          "internalType": "address",
          "name": "from",
          "type": "address"
        },
        {
          "internalType": "address",
          "name": "to",
          "type": "address"
        },
        {
          "internalType": "uint256",
          "name": "tokenId",
          "type": "uint256"
        }
      ],
      "name": "transferFrom",
      "outputs": [],
      "stateMutability": "nonpayable",
      "type": "function"
    },
    {
      "inputs": [
        {
          "internalType": "address",
          "name": "newOwner",
          "type": "address"
        }
      ],
      "name": "transferOwnership",
      "outputs": [],
      "stateMutability": "nonpayable",
      "type": "function"
    }
  ],
  "bytecode": "0x60803462000389576001600160401b039060408181018381118382101762000373578152601a82526020917f5175616e74756d20436865737320416368696576656d656e7473000000000000838201528151938285018581108282111762000373578352600385526251434160e81b84860152815181811162000373576000948554916001948584811c9416801562000368575b8385101462000354578190601f9485811162000301575b5083908583116001146200029d57899262000291575b5050600019600383901b1c191690851b1786555b86519283116200027d5783548481811c9116801562000272575b828210146200025e5782811162000216575b5080918311600114620001af575084958293949592620001a3575b5050600019600383901b1c191690821b1790555b33156200018b57600b8054336001600160a01b03198216811790925591519290916001600160a01b0316907f8be0079c531659141344cd1fd0a4f28419497f9722a3daafe3b4186f6b6457e09080a3612e7d90816200038f8239f35b51631e4fbdf760e01b81526004810191909152602490fd5b0151905038806200011b565b90601f198316968487528287209287905b898210620001fe575050838596979810620001e4575b505050811b0190556200012f565b015160001960f88460031b161c19169055388080620001d6565b808785968294968601518155019501930190620001c0565b8487528187208380860160051c82019284871062000254575b0160051c019085905b8281106200024857505062000100565b88815501859062000238565b925081926200022f565b634e487b7160e01b87526022600452602487fd5b90607f1690620000ee565b634e487b7160e01b86526041600452602486fd5b015190503880620000c0565b898052848a208894509190601f1984168b5b87828210620002ea5750508411620002d0575b505050811b018655620000d4565b015160001960f88460031b161c19169055388080620002c2565b8385015186558b97909501949384019301620002af565b9091508880528389208580850160051c8201928686106200034a575b918991869594930160051c01915b8281106200033b575050620000aa565b8b81558594508991016200032b565b925081926200031d565b634e487b7160e01b88526022600452602488fd5b93607f169362000093565b634e487b7160e01b600052604160045260246000fd5b600080fdfe6080604052600436101561001257600080fd5b60003560e01c806301ffc9a7146101e757806306fdde03146101e2578063081812fc146101dd578063095ea7b3146101d85780630fc7e0c3146101d3578063117a5b90146101ce57806318160ddd146101c95780631b76929c146101c457806323b872dd146101bf5780632e0be39a146101ba5780632f745c59146101b55780633982fc07146101b057806342842e0e146101ab578063474d0b5a146101a65780634f6ccce7146101a15780636352211e1461019c57806370a0823114610197578063715018a6146101925780637d20e9271461018d57806386514131146101885780638da5cb5b1461018357806395d89b411461017e578063a22cb46514610179578063b88d4fde14610174578063c87b56dd1461016f578063cdafbbb61461016a578063e985e9c514610165578063f2fde38b146101605763ffde0c741461015b57600080fd5b611379565b6111f5565b611198565b611147565b6110ee565b61108e565b610fd5565b610f2e565b610f05565b610dbb565b610c77565b610c19565b610bee565b610bbe565b610b4e565b610a2a565b610a02565b6109e4565b610960565b610942565b61092b565b610848565b6107ee565b610789565b61066d565b610452565b6103e8565b610301565b610203565b6001600160e01b03198116036101fe57565b600080fd5b346101fe5760203660031901126101fe576020600435610222816101ec565b63ffffffff60e01b1663780e9d6360e01b8114908115610248575b506040519015158152f35b632483248360e11b811491508115610262575b503861023d565b6380ac58cd60e01b811491508115610294575b8115610283575b503861025b565b6301ffc9a760e01b1490503861027c565b635b5e139f60e01b81149150610275565b60005b8381106102b85750506000910152565b81810151838201526020016102a8565b906020916102e1815180928185528580860191016102a5565b601f01601f1916010190565b9060206102fe9281815201906102c8565b90565b346101fe576000806003193601126103e557604051908080549061032482611463565b808552916020916001918281169081156103b85750600114610361575b61035d86610351818803826105dd565b604051918291826102ed565b0390f35b80809550527f290decd9548b62a8d60345a988386fc84ba6bc95484008f6362f93160ef3e5635b8385106103a5575050505081016020016103518261035d38610341565b8054868601840152938201938101610388565b905086955061035d9693506020925061035194915060ff191682840152151560051b820101929338610341565b80fd5b346101fe5760203660031901126101fe5760043561040581611e5e565b506000526004602052602060018060a01b0360406000205416604051908152f35b600435906001600160a01b03821682036101fe57565b602435906001600160a01b03821682036101fe57565b346101fe5760403660031901126101fe5761046b610426565b6024359061047882611e5e565b3315158061053e575b80610510575b6104f8576104f6926104d79181906001600160a01b0385811691167f8c5be1e5ebec7d5bd14f71427d1e84f3dd0314c0f7b2291e5b200ac8c7c3b925600080a46000526004602052604060002090565b80546001600160a01b0319166001600160a01b03909216919091179055565b005b60405163a9fbf51f60e01b8152336004820152602490fd5b506001600160a01b038116600090815260056020908152604080832033845290915290205460ff1615610487565b506001600160a01b038116331415610481565b634e487b7160e01b600052604160045260246000fd5b60e0810190811067ffffffffffffffff82111761058357604052565b610551565b6020810190811067ffffffffffffffff82111761058357604052565b610800810190811067ffffffffffffffff82111761058357604052565b6040810190811067ffffffffffffffff82111761058357604052565b90601f8019910116810190811067ffffffffffffffff82111761058357604052565b67ffffffffffffffff811161058357601f01601f191660200190565b929192610627826105ff565b9161063560405193846105dd565b8294818452818301116101fe578281602093846000960137010152565b9080601f830112156101fe578160206102fe9335910161061b565b346101fe5760403660031901126101fe57610686610426565b60243567ffffffffffffffff81116101fe576106a6903690600401610652565b6106ae611e99565b6106b9600f54611558565b600f8190556001600160a01b038084169390918415610770576106db91612926565b1661075757600f5460405166697066733a2f2f60c81b602082015261071e916107198261070b602782018761156c565b03601f1981018452836105dd565b611ec5565b7f128dd57b38c92397ab028d0e3e110ecc4fc4c8b4f954bbd3354d127a8f8d8bab610752600f5492604051918291826102ed565b0390a3005b6040516339e3563760e11b815260006004820152602490fd5b604051633250574960e11b815260006004820152602490fd5b346101fe5760203660031901126101fe57600435600052600c60205260a06040600020600180831b038082541691816001820154169060046003820154910154916040519485526020850152604084015260ff8116606084015260081c166080820152f35b346101fe5760003660031901126101fe576020600954604051908152f35b602090602060408183019282815285518094520193019160005b828110610834575050505090565b835185529381019392810192600101610826565b346101fe576000806003193601126103e557600e5461086681611583565b90604061087660405193846105dd565b81835261088282611583565b60209190601f190136858401378460019260015b858111156108af578787526040518061035d898261080c565b808352600c82528383206004015460ff1685146108d5575b6108d090611558565b610896565b966108ee81896108e86108d0948b6115b1565b52611558565b9790506108c7565b60609060031901126101fe576001600160a01b039060043582811681036101fe579160243590811681036101fe579060443590565b346101fe576104f661093c366108f6565b916115ca565b346101fe5760003660031901126101fe576020600e54604051908152f35b346101fe5760403660031901126101fe57610979610426565b6024359061098681611723565b8210156109b95760018060a01b031660005260076020526040600020906000526020526020604060002054604051908152f35b60405163295f44f760e21b81526001600160a01b039190911660048201526024810191909152604490fd5b346101fe5760003660031901126101fe576020600f54604051908152f35b346101fe576104f6610a13366108f6565b9060405192610a2184610588565b60008452611a3b565b346101fe5760203660031901126101fe57610a43610426565b610a4e600e54611558565b90610a5882600e55565b610ab96005610a7184600052600c602052604060002090565b80546001600160a01b031916331781556001810180546001600160a01b0319166001600160a01b03861617905542600382015560048101805460ff1916600117905501611f21565b336000908152600d60205260409020600101610ad58154611558565b90556001600160a01b0381169081610b22575b5061035d60405192839233827f8946648bc1dbc670d3f07e2c4de91731227b6d4ccc53b8ab1e951e84d960577e600080a482526020820190565b6001600160a01b03166000908152600d60205260409020600101610b468154611558565b905538610ae8565b346101fe5760203660031901126101fe57600435600954811015610b9f5760209060096000527f6e1540171b6c0c960b71a7020d9f60077f6af931a8bbf590da0223dacf75c7af0154604051908152f35b6044906040519063295f44f760e21b8252600060048301526024820152fd5b346101fe5760203660031901126101fe576020610bdc600435611e5e565b6040516001600160a01b039091168152f35b346101fe5760203660031901126101fe576020610c11610c0c610426565b611723565b604051908152f35b346101fe576000806003193601126103e557610c33611e99565b600b80546001600160a01b0319811690915581906001600160a01b03167f8be0079c531659141344cd1fd0a4f28419497f9722a3daafe3b4186f6b6457e08280a380f35b346101fe5760403660031901126101fe5760043560243567ffffffffffffffff81116101fe57610cab903690600401610652565b90610d6482610cc483600052600c602052604060002090565b610ce0600160ff610cd9600485015460ff1690565b161461175c565b8054610cfc906001600160a01b03165b6001600160a01b031690565b33148015610d96575b610d0e9061179a565b610d1b60048351146117e6565b610d5f610d278361209e565b610d30846120f8565b906002840193610d5a610d556005610d49885460011690565b159301928585856121ab565b611846565b612787565b6119b3565b7f2cd40382871897b179712f174ebbe74a1cf9bd00f050a2a9e3b157df33e5e2646040518061075233954290836119e2565b506001810154610d0e90610db2906001600160a01b0316610cf0565b33149050610d05565b346101fe5760403660031901126101fe57600435610dd761043c565b90610e6282610df083600052600c602052604060002090565b6004810190610e07600160ff610cd9855460ff1690565b8054610e1b906001600160a01b0316610cf0565b3314908115610ee6575b508015610ed2575b610e36906119fe565b8054610100600160a81b0360089390931b929092166001600160a81b0319909216919091176002179055565b6001600160a01b0382169182610e9b575b507f3d5fcd8fa3235aeb3897f25c8ea49989174981afcb01b9d03189d1056a16775b600080a3005b6001600160a01b0381166000908152600d60205260409020610ecc9190600201610ec58154611558565b90556127ff565b38610e73565b50600b546001600160a01b03163314610e2d565b60010154610efd91506001600160a01b0316610cf0565b331438610e25565b346101fe5760003660031901126101fe57600b546040516001600160a01b039091168152602090f35b346101fe576000806003193601126103e55760405190806001805490610f5382611463565b80865292602092600181169081156103b85750600114610f7d5761035d86610351818803826105dd565b9350600184527fb10e2d527612073b26eecdfd717e6a320cf44b4afac2b0732d9fcbe2b7fa0cf65b838510610fc2575050505081016020016103518261035d38610341565b8054868601840152938201938101610fa5565b346101fe5760403660031901126101fe57610fee610426565b6024358015158082036101fe576001600160a01b038316928315611075573360009081526005602090815260408083206001600160a01b039094168352929052209060ff801983541691161790557f17307eab39ab6107e8899845ad3d59bd9653f200f220920489ca2b5937696c3160405180610752339482919091602081019215159052565b604051630b61174360e31b815260048101859052602490fd5b346101fe5760803660031901126101fe576110a7610426565b6110af61043c565b6064359167ffffffffffffffff83116101fe57366023840112156101fe576110e46104f693369060248160040135910161061b565b9160443591611a3b565b346101fe5760203660031901126101fe5760043561110b81611e5e565b50600052600660205261035d611124604060002061149d565b600060405161113281610588565b526040519182916020835260208301906102c8565b346101fe5760203660031901126101fe576001600160a01b03611168610426565b16600052600d60205260606040600020805490600260018201549101549060405192835260208301526040820152f35b346101fe5760403660031901126101fe57602060ff6111e96111b8610426565b6111c061043c565b6001600160a01b0391821660009081526005865260408082209290931681526020919091522090565b54166040519015158152f35b346101fe5760203660031901126101fe5761120e610426565b611216611e99565b6001600160a01b0390811690811561126a57600b54826bffffffffffffffffffffffff60a01b821617600b55167f8be0079c531659141344cd1fd0a4f28419497f9722a3daafe3b4186f6b6457e0600080a3005b604051631e4fbdf760e01b815260006004820152602490fd5b6000915b6040831061129457505050565b60019060ff83511681526020809101920192019190611287565b6020918282526108e082019260018060a01b038083511682850152818301511660408401526040820151936108c0606085015284518091526109009180838601938360051b8701019601926000905b83821061134c5750505050509060e060c08360606102fe9501516080850152611330608082015160a086019060ff169052565b60a08101516001600160a01b0316848301520151910190611283565b9091929396838061136a6001936108ff198b82030186528b516102c8565b990192019201909392916112fd565b346101fe5760203660031901126101fe5761035d604080805161139b81610567565b6000908181528160208201526060838201528160608201528160808201528160a082015260c08351916113cd836105a4565b61080036843701526004358152600c602052209061145460058251936113f285610567565b80546001600160a01b03908116865260018201548116602087015261144e9061141d60028401611b41565b8787015260038301546060880152600483015460ff8116608089015260081c1660a087019060018060a01b03169052565b01611b96565b60c083015251918291826112ae565b90600182811c92168015611493575b602083101461147d57565b634e487b7160e01b600052602260045260246000fd5b91607f1691611472565b906040519182600082546114b081611463565b9081845260209460019160018116908160001461152057506001146114e1575b5050506114df925003836105dd565b565b600090815285812095935091905b8183106115085750506114df93508201013880806114d0565b855488840185015294850194879450918301916114ef565b925050506114df94925060ff191682840152151560051b8201013880806114d0565b634e487b7160e01b600052601160045260246000fd5b60001981146115675760010190565b611542565b9061157f602092828151948592016102a5565b0190565b67ffffffffffffffff81116105835760051b60200190565b634e487b7160e01b600052603260045260246000fd5b80518210156115c55760209160051b010190565b61159b565b6001600160a01b038281169290919083156107705760008581526002602052604090205485906001600160a01b03169433611713575b84861695861580156116e5575b6001600160a01b038516600090815260036020526040902060018154019055611644856104d7866000526002602052604060002090565b8383897fddf252ad1be2c89b69c2b068fc378daa952ba7f163c4a11628f55a4df523b3ef600080a4156116c5575061167b82612bf1565b85036116b5575b5050169182820361169257505050565b60649350604051926364283d7b60e01b8452600484015260248301526044820152fd5b6116be91612c49565b3884611682565b828288036116d5575b505061167b565b6116de91612b81565b38826116ce565b6116ee84612902565b6001600160a01b0382166000908152600360205260409020805460001901905561160d565b61171e823388612d6e565b611600565b6001600160a01b0316801561174357600052600360205260406000205490565b6040516322718ad960e21b815260006004820152602490fd5b1561176357565b60405162461bcd60e51b815260206004820152600f60248201526e47616d65206e6f742061637469766560881b6044820152606490fd5b156117a157565b60405162461bcd60e51b815260206004820152601960248201527f4e6f74206120706c6179657220696e20746869732067616d65000000000000006044820152606490fd5b156117ed57565b60405162461bcd60e51b815260206004820152602b60248201527f496e76616c6964206d6f766520666f726d61742028657870656374656420652e60448201526a672e2c202765326534272960a81b6064820152608490fd5b1561184d57565b60405162461bcd60e51b8152602060048201526012602482015271496e76616c6964206368657373206d6f766560701b6044820152606490fd5b90601f811161189557505050565b6000916000526020600020906020601f850160051c830194106118d3575b601f0160051c01915b8281106118c857505050565b8181556001016118bc565b90925082906118b3565b919091825167ffffffffffffffff811161058357611905816118ff8454611463565b84611887565b602080601f83116001146119485750819061193993949560009261193d575b50508160011b916000199060031b1c19161790565b9055565b015190503880611924565b90601f1983169561195e85600052602060002090565b926000905b88821061199b57505083600195969710611982575b505050811b019055565b015160001960f88460031b161c19169055388080611978565b80600185968294968601518155019501930190611963565b908154600160401b81101561058357600181018084558110156115c5576114df926000526020600020016118dd565b9291906119f96020916040865260408601906102c8565b930152565b15611a0557565b60405162461bcd60e51b815260206004820152600e60248201526d139bdd08185d5d1a1bdc9a5e995960921b6044820152606490fd5b91929092611a4a8185856115ca565b833b611a57575b50505050565b611a7c916020916040519384928392630a85bd0160e11b9788855233600486016128a1565b038160006001600160a01b0388165af160009181611b10575b50611ad45782611aa36128d2565b8051919082611acd57604051633250574960e11b81526001600160a01b0383166004820152602490fd5b6020915001fd5b6001600160e01b03191603611aed575038808080611a51565b604051633250574960e11b81526001600160a01b03919091166004820152602490fd5b611b3391925060203d602011611b3a575b611b2b81836105dd565b81019061288c565b9038611a95565b503d611b21565b908154611b4d81611583565b92611b5b60405194856105dd565b818452600090815260208082208186015b848410611b7a575050505050565b6001838192611b888561149d565b815201920193019290611b6c565b604080519291600090845b83601f840110611bb857505050506114df826105a4565b6001610400602092611e528554611e4760ff611bd88582851660ff169052565b611e20611c85611dd08d611d8089611d308e611bfd8184018a8d60081c1660ff169052565b611c108584018a8d60101c1660ff169052565b888b610200606095611c2b878201858560181c1660ff169052565b611c406080958585888501921c1660ff169052565b611ce660a097611c59898401878760281c1660ff169052565b611c9660c09b611c728d8601898960301c1660ff169052565b60e09e8f8601898960381c1660ff169052565b87876101008701921c1660ff169052565b611cab6101208401878760481c1660ff169052565b611cc06101408401878760501c1660ff169052565b611cd56101608401878760581c1660ff169052565b85856101808501921c1660ff169052565b611cfb6101a08201858560681c1660ff169052565b611d106101c08201858560701c1660ff169052565b611d256101e08201858560781c1660ff169052565b01921c1660ff169052565b611d456102208c01888b60881c1660ff169052565b611d5a6102408c01888b60901c1660ff169052565b611d6f6102608c01888b60981c1660ff169052565b86896102808d01921c1660ff169052565b611d956102a08a01868960a81c1660ff169052565b611daa6102c08a01868960b01c1660ff169052565b611dbf6102e08a01868960b81c1660ff169052565b84876103008b01921c1660ff169052565b611de56103208801848760c81c1660ff169052565b611dfa6103408801848760d01c1660ff169052565b611e0f6103608801848760d81c1660ff169052565b82856103808901921c1660ff169052565b611e356103a08601828560e81c1660ff169052565b6103c08501908360f01c1660ff169052565b60f81c6103e0830152565b01920192019190611ba1565b6000818152600260205260409020546001600160a01b0316908115611e81575090565b60249060405190637e27328960e01b82526004820152fd5b600b546001600160a01b03163303611ead57565b60405163118cdaa760e01b8152336004820152602490fd5b602090611eff7ff8e1a15aba9398e019f0b49df1a4fde98ee17ae345cb5f6b5e2c27f5033e8ce793826000526006845260406000206118dd565b604051908152a1565b91909160408310156115c557601f908360051c01921690565b805467ffffffffffffffff1916670a08090c0b09080a17815560085b60108110612052575060105b6030811061202d575060305b6038811061200157506114df90611f7290611f8860018201601884565b81549060031b9060ff6004831b921b1916179055565b611fa86001820160195b81549060031b9060ff6002831b921b1916179055565b611fc860018201601a5b81549060031b9060ff6003831b921b1916179055565b60018101805461ffff60d81b191661060560d81b178155611fea90601d611fb2565b611ff860018201601e611f92565b60010190601f90565b8061202761201160019385611f08565b81549060031b9060ff6001831b921b1916179055565b01611f55565b8061204c61203d60019385611f08565b60ff82549160031b1b19169055565b01611f49565b8061207861206260019385611f08565b81549060031b9060ff6007831b921b1916179055565b01611f3d565b60071981019190821161156757565b9081518110156115c5570160200190565b604051906120ab826105c1565b600290600283526020368185013760009060005b8381106120cd575050505090565b6001906001600160f81b03196120e3828561208d565b5116841a6120f1828861208d565b53016120bf565b60405190612105826105c1565b600282526020368184013760025b6004811061212057505090565b6001600160f81b0319612133828461208d565b51169060011981018181116115675761215260019360001a918661208d565b5301612113565b90600082600103921260018312811690600184139015161761156757565b8181039291600013801582851316918412161761156757565b906008820180921161156757565b9190820180921161156757565b92906121b96121bf91612a3b565b92612a3b565b906040831080159061277c575b61277357818314612773576121f16121e48486611f08565b905460ff9160031b1c1690565b916121ff6121e48287611f08565b9260ff8116156127685761221290612aa1565b9290831515911515820361275c5760ff8516159182159586612743575b505060ff1691600196838880951460001461242d57508660031c9661226761225a898560031c612177565b9360078084169116612177565b951561235b57600019938484149889809a612353575b8061234c575b61233f576006149384612333575b508361232a575b83612322575b50826122f9575b50506122f157846122cd575b505050816122c5575b506102fe5750600090565b9050386122ba565b909180939450149182156122e7575b5050903883816122b1565b14905082386122dc565b505050505090565b61231a92506123149161230e6121e49261207e565b90611f08565b60ff1690565b1538806122a5565b92503861229e565b86159350612298565b60011914935038612291565b5050505050505050505090565b5081612283565b50871561227d565b919380859492941497888099612425575b8061241e575b61241257149384612407575b50836123fe575b836123f6575b50826123d9575b50506123d357826123af575b50816122c557506102fe5750600090565b9091508260001982149182156123c9575b5050903861239e565b14905082386123c0565b50505090565b6123ee92506123149161230e6121e492612190565b153880612392565b92503861238b565b84159350612385565b60021493503861237e565b50505050505050505090565b5082612372565b50861561236c565b93509350935050600281146000146124cd575050612461906007806124588560031c8460031c612177565b94169116612177565b82600261246d84612aea565b1492836124ba575b8315612489575b5050506102fe5750600090565b61249591929350612aea565b1490816124a6575b5038828161247c565b600291506124b390612aea565b143861249d565b9250806124c683612aea565b1492612475565b600394929193949081811460001461256557508082866124ef931c911c612177565b936125006007821660078416612177565b9261250a86612aea565b61251385612aea565b148061255c575b61252957505050505050600090565b60006102fe961360001461255257600081945b13156125485793612b06565b5060001993612b06565b600080199461253c565b5085151561251a565b60048103612625575080828661257d931c911c612177565b9361258e6007821660078416612177565b928515808061261b575b8115612601575b506125af57505050505050600090565b6102fe95600080918181136000146125ed57505081945b60008113156125d757505093612b06565b6000919692501215612b06576000199450612b06565b9080969112156125c65760001995506125c6565b8515915081612612575b503861259f565b9050153861260b565b8515159150612598565b600581036126c4575080828661263d931c911c612177565b9361264e6007821660078416612177565b9261265886612aea565b61266185612aea565b14806126bb575b861580806126b1575b8115612697575b50811561268f57506125af57505050505050600090565b90503861259f565b86159150816126a8575b5038612678565b905015386126a1565b8615159150612671565b50851515612668565b60069193959450146126d95750505050600090565b6007806124588484876126ee971c911c612177565b826126f883612aea565b1315918261272f575b82612713575b50506102fe5750600090565b1580159250612725575b503880612707565b905015153861271d565b91508261273b82612aea565b131591612701565b61274c90612aa1565b905015151461275c57388061222f565b50505050505050600090565b505050505050600090565b50505050600090565b5060408210156121cc565b916114df9261279b6121b961203d94612a3b565b6127b560ff806127ab8686611f08565b9390549486611f08565b92909485549360031b9460031b1c16831b921b1916179055611f08565b908160051b91602083050361156757565b9190916000838201938412911290801582169115161761156757565b6001600160a01b03166000908152600d60205260409020805415612882575b80546104af198101818111611567576101909004604d811161156757600a0a600101908160011161156757811561286c5761286661286161193993600104612159565b6127d2565b906127e3565b634e487b7160e01b600052601260045260246000fd5b6104b0815561281e565b908160209103126101fe57516102fe816101ec565b6001600160a01b0391821681529116602082015260408101919091526080606082018190526102fe929101906102c8565b3d156128fd573d906128e3826105ff565b916128f160405193846105dd565b82523d6000602084013e565b606090565b612916906000526004602052604060002090565b80546001600160a01b0319169055565b6000828152600260205260409020546001600160a01b0316916001600160a01b038084168015918215612a0d575b84169182159081156129e9575b612979866104d7876000526002602052604060002090565b8484847fddf252ad1be2c89b69c2b068fc378daa952ba7f163c4a11628f55a4df523b3ef600080a4156129d3576129af84612bf1565b156129c05750506102fe9150612c90565b036129ca57505090565b6102fe91612c49565b8183146129af576129e48487612b81565b6129af565b6001600160a01b038616600090815260036020526040902060018154019055612961565b612a1684612902565b6001600160a01b03861660009081526003602052604090208054600019019055612954565b8051156115c5576020810151908051600110156115c557602101519060f81c9060601982019182116115675760f81c80602f1981011161156757603090600803019060088211611567578160031b9180830460081490151715611567576102fe9161219e565b60ff81168015612ae057600181101580612ad5575b15612ac2575060019091565b600091506005190160ff81116115675791565b506006811115612ab6565b5050600090600090565b60008112612af55790565b600160ff1b81146115675760000390565b91909392600393612b2981612b238460078a60031c9a16996127e3565b976127e3565b9580861b818104600814821517156115675787810180911161156757848114612b7457612b5860ff9187611f08565b905490881b1c1661275c57612b2992612b2381849295936127e3565b5050505050505050600190565b90612b8b82611723565b9160009282845260209060088252604093848620549360018060a01b031686526007835284862093828103612bcf575b508552600882528484812055845252812055565b8287528484528587205481885280878920558752600884528587205538612bbb565b60095481600052600a60205280604060002055600160401b8110156105835760018101806009558110156115c55760096000527f6e1540171b6c0c960b71a7020d9f60077f6af931a8bbf590da0223dacf75c7af0155565b90612c5382611723565b600019810192908311611567576001600160a01b031660009081526007602090815260408083208584528252808320849055928252600890522055565b600980546000199283820182811161156757600092828452600a6020528060408520549210156115c5578484527f6e1540171b6c0c960b71a7020d9f60077f6af931a8bbf590da0223dacf75c7ae9283820154918310156115c5578492612d2c612d3d9388865280837f6e1540171b6c0c960b71a7020d9f60077f6af931a8bbf590da0223dacf75c7af0155600052600a602052604060002090565b55600052600a602052604060002090565b558254938415612d5a57840193808510156115c557838352015555565b634e487b7160e01b83526031600452602483fd5b6001600160a01b03908282168015159081612dd9575b5015612d905750505050565b16612dae57604051637e27328960e01b815260048101839052602490fd5b60405163177e802f60e01b81526001600160a01b039190911660048201526024810191909152604490fd5b82841680821492508215612e11575b508115612df7575b5038612d84565b905084600052600460205282604060002054161438612df0565b909150600052600560205260ff612e3e8560406000209060018060a01b0316600052602052604060002090565b54169038612de856fea2646970667358221220e14ed502961c82962432b3cd886f06b587cb50f24bad88fd02f17e36fce1cf6b64736f6c63430008180033",
  "linkReferences": {},
  "deployedLinkReferences": {}
}