{
  "_format": "hh-sol-artifact-1",
  "contractName": "QuantumChessArena",
  "sourceName": "contracts/QuantumChessArena.sol",
  "abi": [
    {
      "inputs": [],
      "stateMutability": "nonpayable",
      "type": "constructor"
    },
    {
      "inputs": [],
      "name": "ERC721EnumerableForbiddenBatchMint",
      "type": "error"
    },
    {
      "inputs": [
        {
          "internalType": "address",
          "name": "sender",
          "type": "address"
        },
        {
          "internalType": "uint256",
          "name": "tokenId",
          "type": "uint256"
        },
        {
          "internalType": "address",
          "name": "owner",
          "type": "address"
        }
      ],
      "name": "ERC721IncorrectOwner",
      "type": "error"
    },
    {
      "inputs": [
        {
          "internalType": "address",
          "name": "operator",
          "type": "address"
        },
        {
          "internalType": "uint256",
          "name": "tokenId",
          "type": "uint256"
        }
      ],
      "name": "ERC721InsufficientApproval",
      "type": "error"
    },
    {
      "inputs": [
        {
          "internalType": "address",
          "name": "approver",
          "type": "address"
        }
      ],
      "name": "ERC721InvalidApprover",
      "type": "error"
    },
    {
      "inputs": [
        {
          "internalType": "address",
          "name": "operator",
          "type": "address"
        }
      ],
      "name": "ERC721InvalidOperator",
      "type": "error"
    },
    {
      "inputs": [
        {
          "internalType": "address",
          "name": "owner",
          "type": "address"
        }
      ],
      "name": "ERC721InvalidOwner",
      "type": "error"
    },
    {
      "inputs": [
        {
          "internalType": "address",
          "name": "receiver",
          "type": "address"
        }
      ],
      "name": "ERC721InvalidReceiver",
      "type": "error"
    },
    {
      "inputs": [
        {
          "internalType": "address",
          "name": "sender",
          "type": "address"
        }
      ],
      "name": "ERC721InvalidSender",
      "type": "error"
    },
    {
      "inputs": [
        {
          "internalType": "uint256",
          "name": "tokenId",
          "type": "uint256"
        }
      ],
      "name": "ERC721NonexistentToken",
      "type": "error"
    },
    {
      "inputs": [
        {
          "internalType": "address",
          "name": "owner",
          "type": "address"
        },
        {
          "internalType": "uint256",
          "name": "index",
          "type": "uint256"
        }
      ],
      "name": "ERC721OutOfBoundsIndex",
      "type": "error"
    },
    {
      "inputs": [
        {
          "internalType": "address",
          "name": "owner",
          "type": "address"
        }
      ],
      "name": "OwnableInvalidOwner",
      "type": "error"
    },
    {
      "inputs": [
        {
          "internalType": "address",
          "name": "account",
          "type": "address"
        }
      ],
      "name": "OwnableUnauthorizedAccount",
      "type": "error"
    },
    {
      "anonymous": false,
      "inputs": [
        {
          "indexed": true,
          "internalType": "uint256",
          "name": "tokenId",
          "type": "uint256"
        },
        {
          "indexed": true,
          "internalType": "address",
          "name": "player",
          "type": "address"
        },
        {
          "indexed": false,
          "internalType": "string",
          "name": "achievementType",
          "type": "string"
        }
      ],
      "name": "AchievementMinted",
      "type": "event"
    },
    {
      "anonymous": false,
      "inputs": [
        {
          "indexed": true,
          "internalType": "address",
          "name": "owner",
          "type": "address"
        },
        {
          "indexed": true,
          "internalType": "address",
          "name": "approved",
          "type": "address"
        },
        {
          "indexed": true,
          "internalType": "uint256",
          "name": "tokenId",
          "type": "uint256"
        }
      ],
      "name": "Approval",
      "type": "event"
    },
    {
      "anonymous": false,
      "inputs": [
        {
          "indexed": true,
          "internalType": "address",
          "name": "owner",
          "type": "address"
        },
        {
          "indexed": true,
          "internalType": "address",
          "name": "operator",
          "type": "address"
        },
        {
          "indexed": false,
          "internalType": "bool",
          "name": "approved",
          "type": "bool"
        }
      ],
      "name": "ApprovalForAll",
      "type": "event"
    },
    {
      "anonymous": false,
      "inputs": [
        {
          "indexed": false,
          "internalType": "uint256",
          "name": "_fromTokenId",
          "type": "uint256"
        },
        {
          "indexed": false,
          "internalType": "uint256",
          "name": "_toTokenId",
          "type": "uint256"
        }
      ],
      "name": "BatchMetadataUpdate",
      "type": "event"
    },
    {
      "anonymous": false,
      "inputs": [
        {
          "indexed": false,
          "internalType": "uint256",
          "name": "_tokenId",
          "type": "uint256"
        }
      ],
      "name": "MetadataUpdate",
      "type": "event"
    },
    {
      "anonymous": false,
      "inputs": [
        {
          "indexed": true,
          "internalType": "address",
          "name": "previousOwner",
          "type": "address"
        },
        {
          "indexed": true,
          "internalType": "address",
          "name": "newOwner",
          "type": "address"
        }
      ],
      "name": "OwnershipTransferred",
      "type": "event"
    },
    {
      "anonymous": false,
      "inputs": [
        {
          "indexed": true,
          "internalType": "address",
          "name": "player",
          "type": "address"
        },
        {
          "indexed": false,
          "internalType": "uint256",
          "name": "rating",
          "type": "uint256"
        },
        {
          "indexed": false,
          "internalType": "bool",
          "name": "won",
          "type": "bool"
        }
      ],
      "name": "ScoreSubmitted",
      "type": "event"
    },
    {
      "anonymous": false,
      "inputs": [
        {
          "indexed": true,
          "internalType": "address",
          "name": "from",
          "type": "address"
        },
        {
          "indexed": true,
          "internalType": "address",
          "name": "to",
          "type": "address"
        },
        {
          "indexed": true,
          "internalType": "uint256",
          "name": "tokenId",
          "type": "uint256"
        }
      ],
      "name": "Transfer",
      "type": "event"
    },
    {
      "inputs": [],
      "name": "achievementCounter",
      "outputs": [
        {
          "internalType": "uint256",
          "name": "",
          "type": "uint256"
        }
      ],
      "stateMutability": "view",
      "type": "function"
    },
    {
      "inputs": [
        {
          "internalType": "address",
          "name": "to",
          "type": "address"
        },
        {
          "internalType": "uint256",
          "name": "tokenId",
          "type": "uint256"
        }
      ],
      "name": "approve",
      "outputs": [],
      "stateMutability": "nonpayable",
      "type": "function"
    },
    {
      "inputs": [
        {
          "internalType": "address",
          "name": "owner",
          "type": "address"
        }
      ],
      "name": "balanceOf",
      "outputs": [
        {
          "internalType": "uint256",
          "name": "",
          "type": "uint256"
        }
      ],
      "stateMutability": "view",
      "type": "function"
    },
    {
      "inputs": [
        {
          "internalType": "uint256",
          "name": "tokenId",
          "type": "uint256"
        }
      ],
      "name": "getApproved",
      "outputs": [
        {
          "internalType": "address",
          "name": "",
          "type": "address"
        }
      ],
      "stateMutability": "view",
      "type": "function"
    },
    {
      "inputs": [],
      "name": "getLeaderboard",
      "outputs": [
        {
          "components": [
            {
              "internalType": "address",
              "name": "player",
              "type": "address"
            },
            {
              "internalType": "uint256",
              "name": "rating",
              "type": "uint256"
            },
            {
              "internalType": "uint256",
              "name": "gamesPlayed",
              "type": "uint256"
            },
            {
              "internalType": "uint256",
              "name": "gamesWon",
              "type": "uint256"
            }
          ],
          "internalType": "struct QuantumChessArena.LeaderboardEntry[]",
          "name": "",
          "type": "tuple[]"
        }
      ],
      "stateMutability": "view",
      "type": "function"
    },
    {
      "inputs": [
        {
          "internalType": "address",
          "name": "owner",
          "type": "address"
        },
        {
          "internalType": "address",
          "name": "operator",
          "type": "address"
        }
      ],
      "name": "isApprovedForAll",
      "outputs": [
        {
          "internalType": "bool",
          "name": "",
          "type": "bool"
        }
      ],
      "stateMutability": "view",
      "type": "function"
    },
    {
      "inputs": [
        {
          "internalType": "uint256",
          "name": "",
          "type": "uint256"
        }
      ],
      "name": "leaderboard",
      "outputs": [
        {
          "internalType": "address",
          "name": "player",
          "type": "address"
        },
        {
          "internalType": "uint256",
          "name": "rating",
          "type": "uint256"
        },
        {
          "internalType": "uint256",
          "name": "gamesPlayed",
          "type": "uint256"
        },
        {
          "internalType": "uint256",
          "name": "gamesWon",
          "type": "uint256"
        }
      ],
      "stateMutability": "view",
      "type": "function"
    },
    {
      "inputs": [
        {
          "internalType": "address",
          "name": "player",
          "type": "address"
        },
        {
          "internalType": "string",
          "name": "achievementType",
          "type": "string"
        }
      ],
      "name": "mintAchievement",
      "outputs": [],
      "stateMutability": "nonpayable",
      "type": "function"
    },
    {
      "inputs": [],
      "name": "name",
      "outputs": [
        {
          "internalType": "string",
          "name": "",
          "type": "string"
        }
      ],
      "stateMutability": "view",
      "type": "function"
    },
    {
      "inputs": [],
      "name": "owner",
      "outputs": [
        {
          "internalType": "address",
          "name": "",
          "type": "address"
        }
      ],
      "stateMutability": "view",
      "type": "function"
    },
    {
      "inputs": [
        {
          "internalType": "uint256",
          "name": "tokenId",
          "type": "uint256"
        }
      ],
      "name": "ownerOf",
      "outputs": [
        {
          "internalType": "address",
          "name": "",
          "type": "address"
        }
      ],
      "stateMutability": "view",
      "type": "function"
    },
    {
      "inputs": [
        {
          "internalType": "address",
          "name": "",
          "type": "address"
        }
      ],
      "name": "playerStats",
      "outputs": [
        {
          "internalType": "uint256",
          "name": "rating",
          "type": "uint256"
        },
        {
          "internalType": "uint256",
          "name": "gamesPlayed",
          "type": "uint256"
        },
        {
          "internalType": "uint256",
          "name": "gamesWon",
          "type": "uint256"
        }
      ],
      "stateMutability": "view",
      "type": "function"
    },
    {
      "inputs": [],
      "name": "renounceOwnership",
      "outputs": [],
      "stateMutability": "nonpayable",
      "type": "function"
    },
    {
      "inputs": [
        {
          "internalType": "address",
          "name": "from",
          "type": "address"
        },
        {
          "internalType": "address",
          "name": "to",
          "type": "address"
        },
        {
          "internalType": "uint256",
          "name": "tokenId",
          "type": "uint256"
        }
      ],
      "name": "safeTransferFrom",
      "outputs": [],
      "stateMutability": "nonpayable",
      "type": "function"
    },
    {
      "inputs": [
        {
          "internalType": "address",
          "name": "from",
          "type": "address"
        },
        {
          "internalType": "address",
          "name": "to",
          "type": "address"
        },
        {
          "internalType": "uint256",
          "name": "tokenId",
          "type": "uint256"
        },
        {
          "internalType": "bytes",
          "name": "data",
          "type": "bytes"
        }
      ],
      "name": "safeTransferFrom",
      "outputs": [],
      "stateMutability": "nonpayable",
      "type": "function"
    },
    {
      "inputs": [
        {
          "internalType": "address",
          "name": "operator",
          "type": "address"
        },
        {
          "internalType": "bool",
          "name": "approved",
          "type": "bool"
        }
      ],
      "name": "setApprovalForAll",
      "outputs": [],
      "stateMutability": "nonpayable",
      "type": "function"
    },
    {
      "inputs": [
        {
          "internalType": "bool",
          "name": "won",
          "type": "bool"
        }
      ],
      "name": "submitScore",
      "outputs": [],
      "stateMutability": "nonpayable",
      "type": "function"
    },
    {
      "inputs": [
        {
          "internalType": "bytes4",
          "name": "interfaceId",
          "type": "bytes4"
        }
      ],
      "name": "supportsInterface",
      "outputs": [
        {
          "internalType": "bool",
          "name": "",
          "type": "bool"
        }
      ],
      "stateMutability": "view",
      "type": "function"
    },
    {
      "inputs": [],
      "name": "symbol",
      "outputs": [
        {
          "internalType": "string",
          "name": "",
          "type": "string"
        }
      ],
      "stateMutability": "view",
      "type": "function"
    },
    {
      "inputs": [
        {
          "internalType": "uint256",
          "name": "index",
          "type": "uint256"
        }
      ],
      "name": "tokenByIndex",
      "outputs": [
        {
          "internalType": "uint256",
          "name": "",
          "type": "uint256"
        }
      ],
      "stateMutability": "view",
      "type": "function"
    },
    {
      "inputs": [
        {
          "internalType": "address",
          "name": "owner",
          "type": "address"
        },
        {
          "internalType": "uint256",
          "name": "index",
          "type": "uint256"
        }
      ],
      "name": "tokenOfOwnerByIndex",
      "outputs": [
        {
          "internalType": "uint256",
          "name": "",
          "type": "uint256"
        }
      ],
      "stateMutability": "view",
      "type": "function"
    },
    {
      "inputs": [
        {
          "internalType": "uint256",
          "name": "tokenId",
          "type": "uint256"
        }
      ],
      "name": "tokenURI",
      "outputs": [
        {
          "internalType": "string",
          "name": "",
          "type": "string"
        }
      ],
      "stateMutability": "view",
      "type": "function"
    },
    {
      "inputs": [],
      "name": "totalSupply",
      "outputs": [
        {
          "internalType": "uint256",
          "name": "",
          "type": "uint256"
        }
      ],
      "stateMutability": "view",
      "type": "function"
    },
    {
      "inputs": [
        {
          "internalType": "address",
          "name": "from",
          "type": "address"
        },
        {
          "internalType": "address",
          "name": "to",
          "type": "address"
        },
        {
          "internalType": "uint256",
          "name": "tokenId",
          "type": "uint256"
        }
      ],
      "name": "transferFrom",
      "outputs": [],
      "stateMutability": "nonpayable",
      "type": "function"
    },
    {
      "inputs": [
        {
          "internalType": "address",
          "name": "newOwner",
          "type": "address"
        }
      ],
      "name": "transferOwnership",
      "outputs": [],
      "stateMutability": "nonpayable",
      "type": "function"
    }
  ],
  "bytecode": "0x60803462000389576001600160401b039060408181018381118382101762000373578152601a82526020917f5175616e74756d20436865737320416368696576656d656e7473000000000000838201528151938285018581108282111762000373578352600385526251434160e81b84860152815181811162000373576000948554916001948584811c9416801562000368575b8385101462000354578190601f9485811162000301575b5083908583116001146200029d57899262000291575b5050600019600383901b1c191690851b1786555b86519283116200027d5783548481811c9116801562000272575b828210146200025e5782811162000216575b5080918311600114620001af575084958293949592620001a3575b5050600019600383901b1c191690821b1790555b33156200018b57600b8054336001600160a01b03198216811790925591519290916001600160a01b0316907f8be0079c531659141344cd1fd0a4f28419497f9722a3daafe3b4186f6b6457e09080a3611f0790816200038f8239f35b51631e4fbdf760e01b81526004810191909152602490fd5b0151905038806200011b565b90601f198316968487528287209287905b898210620001fe575050838596979810620001e4575b505050811b0190556200012f565b015160001960f88460031b161c19169055388080620001d6565b808785968294968601518155019501930190620001c0565b8487528187208380860160051c82019284871062000254575b0160051c019085905b8281106200024857505062000100565b88815501859062000238565b925081926200022f565b634e487b7160e01b87526022600452602487fd5b90607f1690620000ee565b634e487b7160e01b86526041600452602486fd5b015190503880620000c0565b898052848a208894509190601f1984168b5b87828210620002ea5750508411620002d0575b505050811b018655620000d4565b015160001960f88460031b161c19169055388080620002c2565b8385015186558b97909501949384019301620002af565b9091508880528389208580850160051c8201928686106200034a575b918991869594930160051c01915b8281106200033b575050620000aa565b8b81558594508991016200032b565b925081926200031d565b634e487b7160e01b88526022600452602488fd5b93607f169362000093565b634e487b7160e01b600052604160045260246000fd5b600080fdfe6080604081815260048036101561001557600080fd5b600092833560e01c90816301ffc9a71461134f5750806306fdde031461129e578063081812fc14611263578063095ea7b3146111875780630fc7e0c314610eea57806318160ddd14610ecb57806323b872dd14610eb35780632f745c5914610e2f5780633982fc0714610e1057806342842e0e14610de75780634f6ccce714610d935780636352211e14610d625780636bb6c910146107695780636d763a6e1461066057806370a0823114610633578063715018a6146105d65780638da5cb5b146105ad57806395d89b41146104c2578063a22cb46514610425578063b88d4fde146103bd578063bf3683991461035e578063c87b56dd14610268578063cdafbbb61461021a578063e985e9c5146101c85763f2fde38b1461013657600080fd5b346101c45760203660031901126101c45761014f611437565b90610158611b0e565b6001600160a01b039182169283156101ae575050600b54826bffffffffffffffffffffffff60a01b821617600b55167f8be0079c531659141344cd1fd0a4f28419497f9722a3daafe3b4186f6b6457e08380a380f35b51631e4fbdf760e01b8152908101849052602490fd5b8280fd5b50503461021657806003193601126102165760ff816020936101e8611437565b6101f0611452565b6001600160a01b0391821683526005875283832091168252855220549151911615158152f35b5080fd5b5050346102165760203660031901126102165760609181906001600160a01b03610242611437565b168152600c60205220805491600260018301549201549181519384526020840152820152f35b5090346101c4576020918260031936011261035a573561028781611ad3565b508352600682528083209281518094829080546102a3816115b0565b91828552600191886001821691826000146103335750506001146102f5575b5050506102f19392916102d69103866114b6565b81516102e18161149a565b5251928284938452830190611412565b0390f35b8552868520879350859291905b82841061031b57505050820101816102d66102f16102c2565b8054848b018601528995508894909301928101610302565b60ff19168782015293151560051b860190930193508492506102d691506102f190506102c2565b8380fd5b50346101c45760203660031901126101c4573591600d548310156103ba5750610388608092611560565b509060018060a01b03825416916001810154916003600283015492015492815194855260208501528301526060820152f35b80fd5b838234610216576080366003190112610216576103d8611437565b6103e0611452565b9060643567ffffffffffffffff811161042157366023820112156104215761041e93816024610414933693013591016114f4565b916044359161197e565b80f35b8480fd5b5090346101c457806003193601126101c45761043f611437565b9060243591821515809303610421576001600160a01b03169283156104ad5750338452600560205280842083855260205280842060ff1981541660ff8416179055519081527f17307eab39ab6107e8899845ad3d59bd9653f200f220920489ca2b5937696c3160203392a380f35b836024925191630b61174360e31b8352820152fd5b8284346103ba57806003193601126103ba578151918282600193600154946104e9866115b0565b918285526020968760018216918260001461058657505060011461052a575b5050506102f1929161051b9103856114b6565b51928284938452830190611412565b9190869350600183527fb10e2d527612073b26eecdfd717e6a320cf44b4afac2b0732d9fcbe2b7fa0cf65b82841061056e575050508201018161051b6102f1610508565b8054848a018601528895508794909301928101610555565b60ff19168782015293151560051b8601909301935084925061051b91506102f19050610508565b505034610216578160031936011261021657600b5490516001600160a01b039091168152602090f35b83346103ba57806003193601126103ba576105ef611b0e565b600b80546001600160a01b0319811690915581906001600160a01b03167f8be0079c531659141344cd1fd0a4f28419497f9722a3daafe3b4186f6b6457e08280a380f35b50503461021657602036600319011261021657602090610659610654611437565b611945565b9051908152f35b50829034610216578160031936011261021657600d5467ffffffffffffffff8111610756579160209284519061069b858260051b01836114b6565b808252600d835284820193837fd7b6990105719101dabeb77144f2a3385c8033acd3af97e9423a695e81ad1eb5865b848310610732575050505050845193808501918186525180925285850193925b8281106106f75785850386f35b835180516001600160a01b031686528083015186840152878101518887015260609081015190860152608090940193928101926001016106ea565b8389600192610744859c999a9c61190a565b815201920192019190979594976106ca565b634e487b7160e01b835260418252602483fd5b50346101c4576020918260031936011261035a5781359182151590818403610d5e57338652600c855282862093845415610d54575b6001908186016107ae81546115ea565b905515610d1557600285016107c381546115ea565b8155338852600c8752848820805490888201918a8a84129112908015821691151617610d025755548114610a83575b338752600c86528387209184516060810181811067ffffffffffffffff821117610a075786528354815260028385015494898301958652015490868101918252838a905b610a1a575b5051935190519086519461084e86611468565b33865289860152868501526060840152600d92600d54600160401b811015610a0757839291610885828561088b9401600d55611560565b90611be8565b88825b6108ec575b50505b6108cf575b50507f690b14db189c65e346e40ef8b1856fab81ab27d0649e4d27009a92a00fedea5c92549382519485528401523392a280f35b600a825411156108e7576108e1611b9d565b80610896565b61089b565b9091508354600019908181019081116109f4579084918310156109ed57909291908a845b61091f575b505082018261088e565b909192935085548381039081116109da578281019081116109da5785908210156109d25761094c82611560565b500154858201908183116109bf5791818794938561096a8195611560565b5001541161097e575b500182949392610910565b6109b99061088561099761099185611560565b5061190a565b916109b46109a482611560565b506109ae87611560565b90611b3a565b611560565b38610973565b634e487b7160e01b8d526011865260248dfd5b939291610915565b634e487b7160e01b8c526011855260248cfd5b5091610893565b634e487b7160e01b8b526011845260248bfd5b634e487b7160e01b8a526041835260248afd5b84600d5480831015610a7c57610a2f83611560565b50546001600160a01b03163314610a4a575080910190610836565b6000198101915081116109da57906109ae610a67610a6e93611560565b5091611560565b610a76611b9d565b3861083b565b505061083b565b835167ffffffffffffffff81860181811183821017610cef5786526008825287820190672334b939ba2bb4b760c11b8252610abc611b0e565b610ac7600e546115ea565b80600e553315610cd8576001600160a01b0390610ae49033611c2c565b16610cc1579066697066733a2f2f60c81b91610b2860278b600e54948b51968792830152610b1888518092858501906113ef565b81010360078101865201846114b6565b818b5260068a52878b20908351908111610cae57908a9291610b4a82546115b0565b601f8111610c57575b50838d601f8311600114610bdd5790600080516020611eb28339815191529683610bd2575b5050600019600383901b1c191690871b1790555b8751908152a1600e547f128dd57b38c92397ab028d0e3e110ecc4fc4c8b4f954bbd3354d127a8f8d8bab865189815280610bca33958c830190611412565b0390a36107f2565b015190503880610b78565b889291601f19831697858352878320925b898110610c33575083600080516020611eb28339815191529910610c1a575b505050811b019055610b8c565b015160001960f88460031b161c19169055388080610c0d565b948194979993838a94989a93015181550195019301928e9694919795928a94610bee565b9091809394508d528b8d20601f830160051c8101918d8410610ca4575b8e8e9695949392601f8b930160051c0192905b838210610c9657505050610b53565b81558e96508991018f610c87565b9091508190610c74565b634e487b7160e01b8c526041875260248cfd5b86516339e3563760e11b81528086018b9052602490fd5b8751633250574960e11b81528087018c9052602490fd5b634e487b7160e01b8a526041855260248afd5b634e487b7160e01b8a526011855260248afd5b338752600c86528387208054601f1980820192918a13801591841291821691151617610d4157556107f2565b634e487b7160e01b895260118452602489fd5b6104b0855561079e565b8580fd5b5091346103ba5760203660031901126103ba5750610d8260209235611ad3565b90516001600160a01b039091168152f35b50346101c45760203660031901126101c457803592600954841015610dcc57602083610dbe866118d3565b91905490519160031b1c8152f35b6044939192519263295f44f760e21b84528301526024820152fd5b5050346102165761041e90610dfb3661152b565b91925192610e088461149a565b85845261197e565b505034610216578160031936011261021657602090600e549051908152f35b5091346103ba57816003193601126103ba57610e49611437565b9260243590610e5785611945565b821015610e8757506001600160a01b03909316815260076020908152828220938252928352819020549051908152f35b925163295f44f760e21b81526001600160a01b0390941692840192835260208301525081906040010390fd5b83346103ba5761041e610ec53661152b565b9161160f565b5050346102165781600319360112610216576020906009549051908152f35b5090346101c457806003193601126101c457610f04611437565b9167ffffffffffffffff602435818111610d5e5736602382011215610d5e57610f3690369060248186013591016114f4565b91610f3f611b0e565b610f4a600e546115ea565b600e8190556001600160a01b038681169690919087156111705790610f6e91611c2c565b1661115957600e549084519260209366697066733a2f2f60c81b85820152610fb36027828851610fa3818484018b8d016113ef565b81010360078101845201826114b6565b838952600685528689209281519283116111465750610fd283546115b0565b601f8111611103575b508490601f831160011461106c579282869592937f128dd57b38c92397ab028d0e3e110ecc4fc4c8b4f954bbd3354d127a8f8d8bab989794600080516020611eb2833981519152968d92611061575b50508160011b916000199060031b1c19161790555b8651908152a161105b600e549451928284938452830190611412565b0390a380f35b01519050388061102a565b838a52858a209190601f1984168b5b8181106110ec575093879693600080516020611eb28339815191529693600193837f128dd57b38c92397ab028d0e3e110ecc4fc4c8b4f954bbd3354d127a8f8d8bab9c9b98106110d3575b505050811b01905561103f565b015160001960f88460031b161c191690553880806110c6565b92938860018192878601518155019501930161107b565b838a52858a20601f840160051c81019187851061113c575b601f0160051c01905b8181106111315750610fdb565b8a8155600101611124565b909150819061111b565b634e487b7160e01b8a5260419052602489fd5b83516339e3563760e11b8152908101869052602490fd5b8651633250574960e11b81528085018a9052602490fd5b5090346101c457806003193601126101c4576111a1611437565b916024356111ae81611ad3565b33151580611250575b80611227575b611211576001600160a01b039485169482918691167f8c5be1e5ebec7d5bd14f71427d1e84f3dd0314c0f7b2291e5b200ac8c7c3b9258880a48452602052822080546001600160a01b031916909117905580f35b835163a9fbf51f60e01b81523381850152602490fd5b506001600160a01b03811686526005602090815284872033885290528386205460ff16156111bd565b506001600160a01b0381163314156111b7565b50346101c45760203660031901126101c45791826020933561128481611ad3565b50825283528190205490516001600160a01b039091168152f35b8284346103ba57806003193601126103ba57815191828283546112c0816115b0565b90818452602095600191876001821691826000146105865750506001146112f4575050506102f1929161051b9103856114b6565b91908693508280527f290decd9548b62a8d60345a988386fc84ba6bc95484008f6362f93160ef3e5635b828410611337575050508201018161051b6102f1610508565b8054848a01860152889550879490930192810161131e565b925050346101c45760203660031901126101c4573563ffffffff60e01b81168091036101c4576020925063780e9d6360e01b8114908115611392575b5015158152f35b632483248360e11b8114915081156113ac575b503861138b565b6380ac58cd60e01b8114915081156113de575b81156113cd575b50386113a5565b6301ffc9a760e01b149050386113c6565b635b5e139f60e01b811491506113bf565b60005b8381106114025750506000910152565b81810151838201526020016113f2565b9060209161142b815180928185528580860191016113ef565b601f01601f1916010190565b600435906001600160a01b038216820361144d57565b600080fd5b602435906001600160a01b038216820361144d57565b6080810190811067ffffffffffffffff82111761148457604052565b634e487b7160e01b600052604160045260246000fd5b6020810190811067ffffffffffffffff82111761148457604052565b90601f8019910116810190811067ffffffffffffffff82111761148457604052565b67ffffffffffffffff811161148457601f01601f191660200190565b929192611500826114d8565b9161150e60405193846114b6565b82948184528183011161144d578281602093846000960137010152565b606090600319011261144d576001600160a01b0390600435828116810361144d5791602435908116810361144d579060443590565b600d5481101561159a57600d60005260021b7fd7b6990105719101dabeb77144f2a3385c8033acd3af97e9423a695e81ad1eb50190600090565b634e487b7160e01b600052603260045260246000fd5b90600182811c921680156115e0575b60208310146115ca57565b634e487b7160e01b600052602260045260246000fd5b91607f16916115bf565b60001981146115f95760010190565b634e487b7160e01b600052601160045260246000fd5b6001600160a01b03828116939184156118ba5760009483865260209560028752604096848883205416963315158061182c575b50871580156117f9575b84845260038352898420805460010190558784526002835289842080546001600160a01b0319168617905587858a7fddf252ad1be2c89b69c2b068fc378daa952ba7f163c4a11628f55a4df523b3ef8780a41561178d57600954878452600a8352808a852055600160401b81101561177957876116d28260016116eb94016009556118d3565b90919082549060031b91821b91600019901b1916179055565b838803611727575b5050505016928383036117065750505050565b6064945051926364283d7b60e01b8452600484015260248301526044820152fd5b61173090611945565b6000198101939084116117655782916008918a94526007815283832085845281528784842055878352522055388080806116f3565b634e487b7160e01b83526011600452602483fd5b634e487b7160e01b84526041600452602484fd5b8784146116eb5761179d88611945565b878452600883528984205490898552600784528a8520918181036117d7575b5088855260088452848b8120558452825282898120556116eb565b8186528285528b862054818752808d8820558652600885528b862055386117bc565b600088815260046020526040902080546001600160a01b031916905588845260038352898420805460001901905561164c565b80611879575b1561183d5738611642565b88878961185a576024915190637e27328960e01b82526004820152fd5b905163177e802f60e01b81523360048201526024810191909152604490fd5b50338814801561189e575b8061183257508683526004825233868a8520541614611832565b5087835260058252888320338452825260ff8984205416611884565b604051633250574960e11b815260006004820152602490fd5b60095481101561159a5760096000527f6e1540171b6c0c960b71a7020d9f60077f6af931a8bbf590da0223dacf75c7af0190600090565b9060405161191781611468565b82546001600160a01b0316815260018301546020820152600283015460408201526003909201546060830152565b6001600160a01b0316801561196557600052600360205260406000205490565b6040516322718ad960e21b815260006004820152602490fd5b92909261198c83858361160f565b833b611999575b50505050565b604051630a85bd0160e11b8082523360048301526001600160a01b03928316602483015260448201949094526080606482015294931692602092909185906119e5906084830190611412565b039483816000978189895af1869181611a8f575b50611a5a575050503d600014611a51573d611a13816114d8565b90611a2160405192836114b6565b81528093823d92013e5b82519283611a4c57604051633250574960e11b815260048101849052602490fd5b019050fd5b60609250611a2b565b919450915063ffffffff60e01b1603611a77575038808080611993565b60249060405190633250574960e11b82526004820152fd5b9091508481813d8311611acc575b611aa781836114b6565b81010312611ac857516001600160e01b031981168103611ac85790386119f9565b8680fd5b503d611a9d565b6000818152600260205260409020546001600160a01b0316908115611af6575090565b60249060405190637e27328960e01b82526004820152fd5b600b546001600160a01b03163303611b2257565b60405163118cdaa760e01b8152336004820152602490fd5b9190611b8757808203611b4b575050565b805482546001600160a01b0319166001600160a01b03919091161782556001808201549083015560028082015490830155600390810154910155565b634e487b7160e01b600052600060045260246000fd5b600d548015611bd25760001901611bb381611560565b611b875760038160008093558260018201558260028201550155600d55565b634e487b7160e01b600052603160045260246000fd5b9190611b8757805182546001600160a01b0319166001600160a01b039190911617825560208101516001830155604081015160028301556060015160039190910155565b6000828152600260209081526040808320546001600160a01b039081169592949192918615918215611e7e575b8116918215908115611e68575b8487526002885285872080546001600160a01b0319168517905584848a7fddf252ad1be2c89b69c2b068fc378daa952ba7f163c4a11628f55a4df523b3ef8a80a415611dfc57600954848752600a88528086882055600160401b811015611de857846116d2826001611cdb94016009556118d3565b15611d7f57505060095460001994858201918211611d6b5790600a83928695948652818152611d0d85872054936118d3565b90549060031b1c611d21816116d2866118d3565b865252828420558252812055600954908115611d575750810190611d44826118d3565b909182549160031b1b1916905560095590565b634e487b7160e01b81526031600452602490fd5b634e487b7160e01b85526011600452602485fd5b81879693929695949503611d97575b50505050505090565b611da090611945565b600019810195908611611dd45783526007825283832085845282528383208190558252600890522055388080808080611d8e565b634e487b7160e01b84526011600452602484fd5b634e487b7160e01b87526041600452602487fd5b878314611cdb57611e0c88611945565b8487526008885285872054908988526007895286882091818103611e46575b50858852600889528787812055875287528585812055611cdb565b818952828a5287892054818a5280898b2055895260088a528789205538611e2b565b8387526003885285872060018154019055611c66565b600084815260046020526040902080546001600160a01b0319169055878652600387528486208054600019019055611c5956fef8e1a15aba9398e019f0b49df1a4fde98ee17ae345cb5f6b5e2c27f5033e8ce7a264697066735822122087764f7364796d2ad097e0091d01eb7111220a8bcee30519ea89bebcecf4758864736f6c63430008180033",
  "linkReferences": {},
  "deployedLinkReferences": {}
}